:020000040800F2
:1000000000000220B9020008C1020008C502000871
:10001000390300083D0300088503000800000000C4
:10002000000000000000000000000000CD030008F8
:10003000D103000800000000D5030008712C00085F
:10004000E9030008E9030008E9030008E9030008E0
:10005000E9030008E9030008E9030008E9030008D0
:10006000E9030008E9030008E9030008E9030008C0
:10007000E9030008E9030008E9030008E9030008B0
:10008000E9030008E9030008E9030008E9030008A0
:10009000E9030008E9030008E9030008E903000890
:1000A000E9030008E9030008E9030008E903000880
:1000B000E9030008E9030008E9030008E903000870
:1000C000E9030008E9030008E9030008E903000860
:1000D000E9030008E9030008E9030008E903000850
:1000E000E9030008E9030008E9030008E903000840
:1000F000E9030008E9030008E9030008E903000830
:10010000E9030008E9030008E9030008E90300081F
:10011000E9030008E9030008E9030008E90300080F
:10012000E9030008E9030008E9030008E9030008FF
:10013000E9030008E9030008E9030008E9030008EF
:10014000E9030008E9030008E9030008E9030008DF
:10015000E9030008E9030008E9030008E9030008CF
:10016000E9030008E9030008E9030008E9030008BF
:10017000E9030008E9030008E903000800000000A3
:10018000E9030008E903000800B583B002F0DAF9DA
:10019000384B394A1360394A136039490CE00A6810
:1001A0004B6801F10C04886803E01168196004339E
:1001B00004329842F9D82146324B9942EFD32E4B64
:1001C0001A68314B9A4204D12C4B1A682F4B9A4231
:1001D00000D0FEE7274B2E4A13602E4A13602E4BA9
:1001E0000AE0194651F8082B5B6802E00020106015
:1001F00004329A42FAD30B46284A9342F1D3244B55
:100200001B6813B9234B1B6803B1FEE702F026FD00
:1002100001A8694602F022F9214C224B1C1BA410B4
:10022000002504E01E4B53F8253098470135AC42B9
:10023000F8DC1D4C1D4B1C1BA410002504E01A4BC0
:1002400053F8253098470135AC42F8DC0198009905
:1002500002F062FD0546164C164B1C1BA41004E070
:10026000013C134B53F824309847002CF8DC284607
:1002700002F0C6F8BABADECA0000002074000020FE
:10028000EC030008040400087856341232547698BF
:100290007800002018060020040400081404000858
:1002A00014040008140400081404000814040008CE
:1002B000140400081404000808B5FFF765FF00BF28
:1002C00000BEFEE71EF0040F0CBFEFF30880EFF353
:1002D00009807146414A10472DE9F04182B0044639
:1002E0008846134B5E6B9D6B9F6A1B6B13F0020F6E
:1002F0000DD00F4BDB6A002B09DA4BF6AB6102F035
:100300009DF920B14FF00042094BDA620CE0094838
:1003100002F0B8F8CDF800802046394632462B4628
:1003200002F014F900BEFEE702B0BDE8F08100BFA4
:1003300000ED00E0183A000800BEFEE71EF0040FD2
:100340000CBFEFF30880EFF309807146244A104791
:100350002DE9F04182B007468846084B5D6B9C6BE7
:100360009E6A074802F08EF8CDF800803846314684
:100370002A46234602F0EAF800BEFEE700ED00E060
:10038000283A00081EF0040F0CBFEFF30880EFF3CB
:1003900009807146134A10472DE9F04182B00746A3
:1003A0008846084B5D6B9C6B9E6A074802F06AF8B2
:1003B000CDF80080384631462A46234602F0C6F87A
:1003C00000BEFEE700ED00E0343A000800BEFEE7A4
:1003D00000BEFEE700BEFEE770470000D90200083D
:0C03E000510300089903000800BEFEE76E
:1003EC00A04500080000002078000020A04500086F
:1003FC000000001000000010780000201C060020F7
:08040C000000001000000010C8
:10041400704700BF10B5044600F0A6FE064BA3FBD0
:100424000030800900F0A6F84FF0FF30214600228A
:1004340000F04AF8002010BDD34D621008B50B4BF4
:100444001A6842F400721A601A6842F480621A60F0
:100454001A6842F480721A60032000F017F80F2023
:10046400FFF7D8FFFFF7D4FF002008BD003C02408F
:10047400014B1868704700BF7C000020024A1368D3
:1004840023F002031360704710E000E010B5044647
:10049400C31E042B03D90A48A42101F0E5FF04F08C
:1004A4000700084AD36823F4E0631B041B0C43EAE7
:1004B400002040F0BF6040F40030D06010BD00BFA9
:1004C4001C37000800ED00E070B504460E461546E2
:1004D4000F2A03D91A48BC2101F0C6FF0F2E03D9F5
:1004E4001748BD2101F0C0FF164BDB68C3F302239C
:1004F400C3F10702042A28BF0422191D062901D9C1
:10050400D81E00E00020012303FA02F2013A32402F
:1005140002FA00F183405A1E2A400A43002C06DAEC
:1005240004F00F041201D2B2074B1A5570BD120128
:10053400D2B204F1604404F5614484F8002370BD30
:100544001C37000800ED00E014ED00E010B5041EB7
:1005540003DA0648D02101F087FF610904F01F0483
:100564000123A340024A42F8213010BD1C37000881
:1005740000E100E00138B0F1807F0AD2064B5860F8
:10058400F021064A82F823100020986007221A609E
:1005940070470120704700BF10E000E000ED00E06C
:1005A4002DE9F84F80460F46A04B984223D003F51F
:1005B400806398421FD003F5806398421BD003F5F3
:1005C4008063984217D003F58063984213D003F5F3
:1005D400806398420FD003F5806398420BD003F5F3
:1005E4008063984207D003F58063984203D0904813
:1005F400C52101F039FF3B881BB98D48C62101F0A4
:1006040033FF7B68012B22D9112B20D0022B1ED063
:10061400122B1CD0874A934219D002F580129342C0
:1006240015D002F58012934211D0A2F5F81293422C
:100634000DD002F58012934209D002F58012934244
:1006440005D0032B03D07A48C72101F00DFFBB6806
:10065400022B03D97648C82101F006FF002423E1C8
:10066400A1460125A5403B6803EA050AAA4540F0D6
:100674001A817B68022B01D0122B4AD13B69C3B388
:10068400092B36D0ABB3A3B39BB393B3012B30D0B8
:100694002FD0022B2DD02CD02BD0032B29D0042BE0
:1006A40027D026D025D0052B23D022D0092B20D02B
:1006B400062B1ED0092B1CD0072B1AD019D018D00A
:1006C400082B16D015D014D0092B12D011D00A2B18
:1006D4000FD00ED00B2B0CD00C2B0AD009D00D2B25
:1006E40007D00C2B05D00F2B03D05148D92101F092
:1006F400BBFEE608083658F8261004F00700800010
:100704000F23834021EA03023B698340134348F8E3
:100714002630D8F800304FEA440B032606FA0BF6CD
:10072400F64306EA03027B6803F0030303FA0BF3C0
:100734001343C8F800307B685A1E012A03D9112BD1
:1007440001D0122B1CD1FB68032B03D93848EC21B0
:1007540001F08AFED8F8083006EA0302FB6803FABF
:100764000BF31343C8F80830D8F8043023EA050320
:100774007D68C5F3001505FA09F51D43C8F8045052
:10078400D8F80C303340BE6806FA0BF61E43C8F89E
:100794000C607B6813F0805F00F08580264A536C00
:1007A40043F480435364A308991CA2F5803252F8A1
:1007B400211004F0030080000F22824021EA02018C
:1007C4001A4A90453AD002F5806290452BD002F542
:1007D4008062904525D002F5806290451FD002F5D5
:1007E4008062904519D002F58062904513D002F5DD
:1007F400806290450DD002F58062904507D002F5E5
:100804008062904501D1082219E0092217E00722ED
:1008140015E0062213E0052211E004220FE0032272
:100824000DE002220BE0012209E000BF00000240BB
:1008340050370008000011100038024000228240A6
:100844000A4302331B4941F823201B4B1A686FEA01
:100854000A0303EA0201786810F4803F01D04AEAEF
:100864000201154A1160526803EA0201786810F423
:10087400003F01D04AEA02010F4A5160926803EA3C
:100884000201786810F4801F01D04AEA02010A4A82
:100894009160D2681340796811F4001F01D04AEACC
:1008A4000203054AD36001340F2C7FF6D9AEBDE8AC
:1008B400F88F00BF00380140003C014070B5064687
:1008C40015460C4621B909484FF4D67101F0CCFD08
:1008D400012D04D9054840F2AD1101F0C5FD0DB15B
:1008E400B46170BD2404B46170BD00BF503700080A
:1008F40038B5044603680F2B04D9B34840F21B11E2
:1009040001F0B2FD236813F0010F5FD06368012B7F
:1009140006D9052B04D0AC484FF4907101F0A4FD26
:10092400AA4B9B6803F00C03042B0AD0A74B9B68CB
:1009340003F00C03082B0DD1A44B5B6813F4800F58
:1009440008D0A24B1B6813F4003F3FD06368002B10
:100954003CD1FCE100229E4B1A70FFF789FD05464D
:1009640007E0FFF785FD401B41F28833984200F20F
:10097400F081964B1B6813F4003FF2D12279944B1B
:100984001A7063688BB1FFF773FD054607E0FFF744
:100994006FFD401B41F28833984200F2DC818B4B9F
:1009A4001B6813F4003FF2D010E0FFF761FD054629
:1009B40007E0FFF75DFD401B41F28833984200F2E7
:1009C400CC81824B1B6813F4003FF2D1236813F0EF
:1009D400020F6DD0E368012B04D97B484FF4B0714A
:1009E40001F042FD23691F2B04D9774840F26111BD
:1009F40001F03AFD754B9B6813F00C0F0AD0734B52
:100A04009B6803F00C03082B1CD1704B5B6813F438
:100A1400800F17D16D4B1B6813F0020F03D0E368EE
:100A2400012B40F09C816948026822F0F801226998
:100A3400F82393FAA3F3B3FA83F3DBB29A400A439D
:100A4400026035E0E3680BB30122624B1A60FFF7E2
:100A54000FFD054605E0FFF70BFD401B642800F27F
:100A640080815A4B1B6813F0020FF4D05748036877
:100A740023F0F8012269F82393FAA3F3B3FA83F37A
:100A8400DBB29A4041EA0203036011E00022514BB9
:100A94001A60FFF7EDFC054605E0FFF7E9FC401B93
:100AA400642800F26081494B1B6813F0020FF4D1F3
:100AB400236813F0080F2ED06369012B04D9424830
:100AC4004FF4D07101F0D0FC636993B10122424B21
:100AD4001A60FFF7CDFC054605E0FFF7C9FC401B93
:100AE400642800F24281394B5B6F13F0020FF4D09B
:100AF40011E00022384B1A60FFF7BAFC054605E006
:100B0400FFF7B6FC401B642800F231812F4B5B6F6A
:100B140013F0020FF4D1236813F0040F6FD0A3680D
:100B2400012B06D9052B04D027484FF4E57101F0B9
:100B34009BFC264A136C43F080531364A2F5E43201
:100B4400136843F480731360FFF792FC054605E0D5
:100B5400FFF78EFC401B642800F20B811F4B1B68BF
:100B640013F4807FF4D000221D4B1A70FFF780FC31
:100B7400054607E0FFF77CFC401B41F288339842AE
:100B840000F2F980114B1B6F13F0020FF2D1227A9D
:100B9400134B1A70A368012B11D1FFF769FC0546AA
:100BA40007E0FFF765FC401B41F28833984200F2EE
:100BB400E480064B1B6F13F0020FF2D01FE0FFF727
:100BC40057FC054616E000BF903700080038024085
:100BD4000238024000004742800E47420070004045
:100BE40070380240FFF744FC401B41F288339842BE
:100BF40000F2C580684B1B6F13F0020FF2D1A3699A
:100C0400022B04D9654840F20E2101F02DFCA369A2
:100C1400002B00F0B680604A926802F00C02082AA9
:100C240000F0B180022B7FD1E3693BB1B3F5800FB3
:100C340004D05A4840F2172101F016FC236A3F2BD6
:100C440004D956484FF4067101F00EFC636AC03BA8
:100C5400F02B04D9514840F2192101F005FCA36A94
:100C6400022B0AD0042B08D0062B06D0082B04D064
:100C74004A4840F21A2101F0F7FBE36A043B0B2BCC
:100C840004D9464840F21B2101F0EEFB0022444BFC
:100C94001A60FFF7EDFB054604E0FFF7E9FB401B94
:100CA400642872D83C4B1B6813F0007FF5D1216A8D
:100CB400626A47F6C07393FAA3F3B3FA83F3DBB221
:100CC4009A401143A36A5B08013B4FF4403292FA05
:100CD400A2F2B2FA82F2D2B293400B43E26943EA3F
:100CE4000201E36A4FF0706292FAA2F2B2FA82F25F
:100CF400D2B203FA02F241EA020343F00053264A55
:100D040053600122264B1A60FFF7B2FB044604E04D
:100D1400FFF7AEFB001B642839D81F4B1B6813F088
:100D2400007FF5D0002038BD00221D4B1A60FFF76C
:100D34009FFB044604E0FFF79BFB001B642828D8B4
:100D4400154B1B6813F0007FF5D1002038BD01203E
:100D540038BD032038BD032038BD032038BD012031
:100D640038BD032038BD032038BD032038BD03201F
:100D740038BD032038BD032038BD032038BD03200F
:100D840038BD002038BD012038BD032038BD032004
:100D940038BD032038BD00BF00380240903700083A
:100DA4006000474270B504460D460368013B0E2BB4
:100DB40004D9884840F27E2101F056FB072D04D95E
:100DC400844840F27F2101F04FFB834B1B6803F002
:100DD4000F03AB4280F08B80EAB27F4B1A701B6822
:100DE40003F00F03AB4240F05181236813F0020F6C
:100DF4001DD0A368A3B1802B12D0902B10D0A02BB0
:100E04000ED0B02B0CD0C02B0AD0D02B08D0E02BA6
:100E140006D0F02B04D06F4840F2952101F024FB5A
:100E24006E498B6823F0F002A36813438B60236838
:100E340013F0010F00F0E8806368022B04D96548C1
:100E44004FF4277101F010FB6268012A05D1634B4E
:100E54001B6813F4003F0ED11AE1022A05D15F4B3F
:100E64001B6813F0007F06D114E15C4B1B6813F080
:100E7400020F00F0118159498B6823F003031343D7
:100E84008B60FFF7F5FA05466368012B0FD107E085
:100E9400FFF7EEFA401B41F28833984200F2FE80DD
:100EA4004E4B9B6803F00C03042BF1D1ACE0022BF6
:100EB40017D107E0FFF7DCFA401B41F28833984270
:100EC40000F2EE80454B9B6803F00C03082BF1D134
:100ED4009AE0FFF7CDFA401B41F28833984200F2C2
:100EE400E1803E4B9B6813F00C0FF2D18CE0236839
:100EF40013F0020F1DD0A368A3B1802B12D0902B46
:100F040010D0A02B0ED0B02B0CD0C02B0AD0D02BDD
:100F140008D0E02B06D0F02B04D02E484FF43971C2
:100F240001F0A2FA2D498B6823F0F002A368134361
:100F34008B60236813F0010F5ED06368022B04D921
:100F4400244840F2EB2101F08FFA6268012A05D1AE
:100F5400224B1B6813F4003F0ED1A5E0022A05D1F1
:100F64001E4B1B6813F0007F06D19FE01B4B1B68D0
:100F740013F0020F00F09C8018498B6823F00303E0
:100F840013438B60FFF774FA06466368012B0FD195
:100F940007E0FFF76DFA801B41F28833984200F2B4
:100FA40089800E4B9B6803F00C03042BF1D123E0E2
:100FB400022B1CD106E0FFF75BFA801B41F2883359
:100FC400984279D8054B9B6803F00C03082BF2D1A7
:100FD40012E000BF90370008003C02400038024095
:100FE400FFF746FA801B41F28833984266D8354BA6
:100FF4009B6813F00C0FF3D1EAB2334B1A701B68E1
:1010040003F00F03AB425BD1236813F0040F19D034
:10101400E36883B1B3F5805F0DD0B3F5A05F0AD068
:10102400B3F5C05F07D0B3F5E05F04D0274840F2C2
:101034003B3101F019FA23498B6823F4E052E36849
:1010440013438B60236813F0080F1AD0236983B10C
:10105400B3F5805F0DD0B3F5A05F0AD0B3F5C05FE0
:1010640007D0B3F5E05F04D0184840F2423101F0F4
:10107400FBF9144A936823F46043216943EAC103EA
:1010840093600F20FFF7C6F9002070BD012070BDEA
:10109400012070BD012070BD012070BD032070BD12
:1010A400032070BD032070BD012070BD012070BD00
:1010B400012070BD032070BD032070BD032070BDEE
:1010C400012070BD00380240003C02409037000807
:1010D400224B9B6803F00C03042B3DD0082B01D05A
:1010E4001F4870471D4B586800F03F005B6813F4BD
:1010F400800F10D01B4BB3FBF0F3184A506847F62F
:10110400C072104092FAA2F2B2FA82F2D2B2D04085
:1011140000FB03F30FE0124BB3FBF0F30F4A5068EC
:1011240047F6C072104092FAA2F2B2FA82F2D2B238
:10113400D04000FB03F3094A506800F440304FF4F8
:10114400403292FAA2F2B2FA82F2D2B2D040013024
:101154004000B3FBF0F0704702487047003802408B
:101164000024F40000127A0008B5FFF7B1FF094B20
:101174009B6803F0F002F02393FAA3F3B3FA83F32A
:10118400DBB222FA03F3044AD35CD840034B186061
:1011940008BD00BF00380240803700080C00002062
:1011A40008B5FFF7E1FF084B9B6803F4E0524FF4E6
:1011B400E05393FAA3F3B3FA83F3DBB222FA03F313
:1011C400024AD35CD84008BD00380240803700088A
:1011D40008B5FFF7C9FF084B9B6803F460424FF45E
:1011E400604393FAA3F3B3FA83F3DBB222FA03F373
:1011F400024AD35CD84008BD00380240803700085A
:101204002DE9F04106460C4690461D46FFF730F99D
:101214000746B8F1000F2AD05BE0B5F1FF3F26D0B6
:1012240025B1FFF725F9C01BA84220D932685368BD
:1012340023F0E00353603268136823F04003136023
:10124400B36AB3F5005F09D13268136823F400531D
:1012540013603268136843F400531360012386F863
:101264005130002386F850300320BDE8F081336804
:101274009B682340A342D0D10020BDE8F081B5F1A2
:10128400FF3F26D025B1FFF7F3F8C01BA84220D9B1
:101294003268536823F0E00353603268136823F024
:1012A40040031360B36AB3F5005F09D13268136871
:1012B40023F4005313603268136843F4005313603B
:1012C400012386F85130002386F850300320BDE80E
:1012D400F08133689B682340A342D0D00020BDE84E
:1012E400F08100BF704700BF002800F0AC8010B54B
:1012F4000446436833B1B3F5827F03D05348B72122
:1013040001F0B2F8A3684BB1B3F5806F06D0B3F522
:10131400004F03D04D48B82101F0A6F8E368B3F5B7
:10132400006F04D01BB14948B92101F09DF823692D
:101334002BB1022B03D04548BA2101F095F863691B
:10134400012B03D94148BB2101F08EF8A369B3F501
:10135400007F07D033B1B3F5802F03D03B48BC21C5
:1013640001F082F8E3698BB1082B0FD0102B0DD05C
:10137400182B0BD0202B09D0282B07D0302B05D0CD
:10138400382B03D03148BD2101F06EF8236A2BB10C
:10139400802B03D02D48BE2101F066F8636A2BB17F
:1013A400102B03D02948BF2101F05EF8A36A33B1A2
:1013B400B3F5005F03D02548C02101F055F8E36A76
:1013C400013B4FF6FE72934203D92048C12101F03C
:1013D4004BF894F8513013F0FF0F02D12046FFF779
:1013E40081FF022384F851302268136823F04003FC
:1013F400136021686268A3681A43E3681A43236987
:101404001A4363691A43A36903F400731343E2693B
:101414001343226A1343A26A1A430A602168638B46
:1014240003F00402636A13434B602368E26A1A619F
:101434002268D36923F40063D3610020606501232B
:1014440084F8513010BD0120704700BFC037000838
:10145400F0B583B004461D4690F85130DBB2012B41
:1014640040F0CE800F461646002900F0CB80002ABB
:1014740000F0CA8083683BB1B3F5004F04D06748DD
:101484004FF4B97100F0F0FF94F85030012B00F0E4
:10149400BD80012384F85030122384F85130002396
:1014A40063652763A686E686E364A364A387E3876C
:1014B400A36AB3F5005F09D12268136823F40053CB
:1014C40013602268136843F400531360A368B3F5F0
:1014D400004F04D12268136843F4804313602368E7
:1014E4001A6812F0400F03D11A6842F040021A60E1
:1014F400E368002B2CD1636813B1E38E012B1AD15E
:101504002268236B591C21631B78D360E38E013B53
:10151400E38610E02046022100222B46FFF770FEEE
:10152400002875D12268236B591C21631B78D36072
:10153400E38E013BE386E38E002BEBD1A36AB3F584
:10154400005F33D12268136843F4805313602DE0A5
:10155400636813B1E38E012B1CD12368226B1288BC
:10156400DA60236B02332363E38E013BE38611E0ED
:101574002046022100222B46FFF742FE002849D1D3
:101584002368226B1288DA60236B02332363E38EB1
:10159400013BE386E38E002BEAD1A36AB3F5005F37
:1015A40004D12268136843F4805313602046022157
:1015B40000222B46FFF724FE28B1636D43F010038D
:1015C4006365032327E02046802101222B46FFF791
:1015D40017FE034628B1636D43F0100363650323CC
:1015E40019E0A2682AB92268D1680191926801922F
:1015F400019A012284F85120002284F850200AE044
:10160400022308E0012306E0012304E0022302E0B0
:10161400032300E00323184603B0F0BDC0370008DD
:1016240030B4036A23F001030362036A44688269E5
:1016340022F073020D682A4323F002038D682B43C2
:101644000F4DA84205D005F58065A84203D10125B8
:1016540002E0012500E000255DB123F00803CD6818
:101664002B4323F0040324F440744D692C438D6907
:101674002C43446082614A684263036230BC704711
:10168400000001402DE9F04104460E46036A23F4AC
:1016940080730362056AD0F80480C76927F0730376
:1016A4000F681F4325F400738D6843EA0525204B1A
:1016B400984205D003F58063984203D1012302E0E8
:1016C400012300E000235BB3F36833B1082B04D09B
:1016D400184841F21C3100F0C7FEB369B3F5007F2E
:1016E40005D023B1134841F21D3100F0BDFE7369EA
:1016F400B3F5807F05D023B10E4841F21E3100F0CE
:10170400B3FE25F40065F36845EA032525F48065F6
:1017140028F44058736948EA0318B36948EA03187F
:10172400C4F80480E7617368E3632562BDE8F0816F
:1017340000000140F03700082DE9F04104460F464F
:10174400036A23F480530362056AD0F80480C669EF
:1017540026F4E6430E6843EA062625F400538D6812
:1017640043EA0535114B984205D003F5806398424E
:1017740003D1012302E0012300E0002373B17B695C
:10178400B3F5807F05D023B1094841F2623100F0FE
:101794006BFE28F480487B6948EA8318C4F8048007
:1017A400E6617B6823642562BDE8F08100000140A6
:1017B400F0370008704700BF0368454A904214D0D0
:1017C400B0F1804F13D0A2F57C42904211D002F5C3
:1017D400806290420FD002F5806290420DD002F5F3
:1017E400784290420BD101220AE0012208E0012252
:1017F40006E0012204E0012202E0012200E00022CE
:101804001AB123F070034A681343314A90422CD032
:10181400B0F1804F2BD0A2F57C42904229D002F542
:101824008062904227D002F58062904225D002F572
:101834007842904223D002F57052904221D002F5B2
:10184400806290421FD002F5806290421DD0A2F5C2
:10185400983290421BD002F58062904219D002F572
:101864008062904217D1012216E0012214E0012285
:1018740012E0012210E001220EE001220CE001221C
:101884000AE0012208E0012206E0012204E001222C
:1018940002E0012200E000221AB123F44073CA6876
:1018A400134303608B68C3620B688362084B9842DE
:1018B40005D003F58063984203D1012302E001239C
:1018C40000E000230BB10B690363012343617047FC
:1018D4000000014000286ED010B504460368374A62
:1018E400934237D0B3F1804F34D0A2F57C42934277
:1018F40030D002F5806293422CD002F5806293428C
:1019040028D002F58062934224D002F5806293428B
:1019140020D002F5704293421CD002F570529342DB
:1019240018D002F58062934214D002F5806293428B
:1019340010D0A2F5983293420CD002F58062934203
:1019440008D002F58062934204D01D4840F2FD3174
:1019540000F08AFDA36863B1102B0AD0202B08D0B5
:10196400402B06D0602B04D0154840F2FE3100F025
:101974007BFD236953B1B3F5807F07D0B3F5007FB6
:1019840004D00F4840F2FF3100F06EFD94F8393076
:1019940013F0FF0F02D12046FFF70CFF022384F857
:1019A4003930214651F8040BFFF706FF012384F870
:1019B4003930002010BD0120704700BF00000140F5
:1019C400F03700082DE9F04104460E46036A23F07F
:1019D40010030362056AD0F80480876927F4E6439C
:1019E4000F6843EA072725F020038D6843EA0515AD
:1019F400204B984205D003F58063984203D101231C
:101A040002E0012300E000235BB3F36833B1082B49
:101A140004D0194841F2082100F026FDB369B3F55A
:101A2400007F05D023B1144841F2092100F01CFDC8
:101A34007369B3F5807F05D023B10F4841F20A21C1
:101A440000F012FD25F08005F36845EA031525F042
:101A5400400528F44068736948EA8308B36948EA92
:101A64008308C4F80480A7617368A3632562BDE892
:101A7400F08100BF00000140F037000890F83830D2
:101A8400012B00F04B8170B516460D460446012328
:101A940080F8383062B1042A0AD0082A08D00C2A07
:101AA40006D0182A04D09E484FF4466100F0DCFCAE
:101AB4002B68602B06D0702B04D0994840F6614106
:101AC40000F0D2FCAB6833B1022B04D0944840F64A
:101AD400624100F0C9FCEB6833B1082B04D0904894
:101AE40040F6634100F0C0FCAB69B3F5007F05D05C
:101AF40023B18B4840F6644100F0B6FC6B69B3F542
:101B0400807F05D023B1864840F6654100F0ACFCE7
:101B14002B6933B1042B04D0814840F6664100F0B0
:101B2400A3FC022384F839300C2E00F2F080DFE8A5
:101B340016F00D00EE00EE00EE005500EE00EE0093
:101B4400EE008E00EE00EE00EE00BE002368754A43
:101B540093422FD0B3F1804F2CD0A2F57C42934214
:101B640028D002F58062934224D002F58062934229
:101B740020D002F5784293421CD002F57052934271
:101B840018D002F58062934214D002F58062934229
:101B940010D0A2F5983293420CD002F580629342A1
:101BA40008D002F58062934204D05D4840F66E414D
:101BB40000F05AFC20682946FFF732FD2268936939
:101BC40043F0080393612268936923F0040393614B
:101BD400226891692B690B43936198E02368514A09
:101BE40093421FD0B3F1804F1CD0A2F57C429342A4
:101BF40018D002F58062934214D002F580629342B9
:101C040010D002F5784293420CD002F57052934200
:101C140008D0A2F59432934204D0414840F67D4165
:101C240000F022FC20682946FFF7CCFE2268936965
:101C340043F4006393612268936923F4806393619E
:101C440022689369296943EA012393615FE0236869
:101C5400344A934217D0B3F1804F14D0A2F57C429A
:101C6400934210D002F5806293420CD002F5806258
:101C7400934208D002F57842934204D0284840F6B3
:101C84008C4100F0F1FB20682946FFF7FBFC226839
:101C9400D36943F00803D3612268D36923F00403B2
:101CA400D3612268D1692B690B43D3612FE0236888
:101CB4001C4A934217D0B3F1804F14D0A2F57C4252
:101CC400934210D002F5806293420CD002F58062F8
:101CD400934208D002F57842934204D0104840F66B
:101CE4009B4100F0C1FB20682946FFF725FD2268CF
:101CF400D36943F40063D3612268D36923F4806316
:101D0400D3612268D369296943EA0123D36101239A
:101D140084F83930002084F8380070BD0220704700
:101D2400F03700080000014070B504460E46154621
:101D3400254B98422FD0B0F1804F2CD0A3F57C4393
:101D4400984228D003F58063984224D003F5806339
:101D5400984220D003F5784398421CD003F5705381
:101D6400984218D003F58063984214D003F5806339
:101D7400984210D0A3F5983398420CD003F58063B1
:101D8400984208D003F58063984204D00F4841F28A
:101D94008D2100F069FB66B1042E0AD0082E08D00C
:101DA4000C2E06D0182E04D0084841F28E2100F0E3
:101DB4005BFB0123B340226A22EA03032362236A02
:101DC400B5401D43256270BD00000140F037000896
:101DD40038B504460D4603682D4A934212D0B3F138
:101DE400804F0FD0A2F57C4293420BD002F5806263
:101DF400934207D002F58062934203D002F5784201
:101E0400934206D135B3042D24D0082D22D00C2DB5
:101E140020D0204A934202D1E5B1042D1AD01E4AA3
:101E2400934200D1B5B11D4A934200D195B11C4AE9
:101E3400934202D175B1042D0CD01A4A934200D1B9
:101E440045B1194A934200D125B1184840F2634183
:101E540000F00AFB206829460122FFF765FF23688A
:101E64000B4A934205D002F58062934203D10122CA
:101E740002E0012200E000221AB15A6C42F400424E
:101E84005A642268136843F001031360002038BDCC
:101E9400000001400040014000440140004801406E
:101EA40000180040001C004000200040F0370008EB
:101EB4002DE9F04104464268944B9A4204D994486F
:101EC40040F2447100F0D0FAE3683BB1B3F5005F2F
:101ED40004D08F4840F2457100F0C6FA236953B12B
:101EE400B3F5806F07D0B3F5C06F04D0884840F2D3
:101EF400467100F0B9FA63694FF6F372134200D1E8
:101F040023B9834840F2477100F0AEFA226813699E
:101F140023F44053E1680B4313612068C36823F43E
:101F2400164323F00C03A16822691143626911432B
:101F3400E2690A431343C3602268536923F440737C
:101F4400A1690B435361E369B3F5004F70D1256870
:101F540003F1804303F510439D4203D003F58063EE
:101F64009D4232D1FFF734F900EB800000EB800092
:101F740063685B00B0FBF3F3664FA7FB03235B09C5
:101F84001E01FFF725F900EB800000EB8000636879
:101F94005B00B0FBF3F8FFF71BF900EB800000EBEC
:101FA400800063685B00B0FBF3F3A7FB03235B09CA
:101FB400642202FB13831B013233A7FB0323C3F305
:101FC40043133343AB60BDE8F081FFF7E9F800EB5E
:101FD400800000EB800063685B00B0FBF3F34D4FBF
:101FE400A7FB03235B091E01FFF7DAF800EB80006F
:101FF40000EB800063685B00B0FBF3F8FFF7D0F8F8
:1020040000EB800000EB800063685B00B0FBF3F33F
:10201400A7FB03235B09642202FB13831B013233F6
:10202400A7FB0323C3F343133343AB60BDE8F08141
:102034002568394B9D4203D003F580639D4232D11C
:10204400FFF7C6F800EB800000EB800063689B009C
:10205400B0FBF3F32F4FA7FB03235B091E01FFF72C
:10206400B7F800EB800000EB800063689B00B0FBD6
:10207400F3F8FFF7ADF800EB800000EB8000636835
:102084009B00B0FBF3F3A7FB03235B09642202FB71
:1020940013831B013233A7FB0323C3F343133343DB
:1020A400AB60BDE8F081FFF77BF800EB800000EB4C
:1020B400800063689B00B0FBF3F3164FA7FB032378
:1020C4005B091E01FFF76CF800EB800000EB800059
:1020D40063689B00B0FBF3F8FFF762F800EB800045
:1020E40000EB800063689B00B0FBF3F3A7FB0323C2
:1020F4005A09642303FB12831B013233A7FB032316
:10210400C3F343133343AB60BDE8F081A037A000B1
:10211400203800081F85EB51001001402DE9F041E3
:1021240006460C4690461D46FEF7A2F90746B8F14E
:10213400000F26D053E0B5F1FF3F22D025B1FEF7C2
:1021440097F9C01BA8421CD93268D36823F08003D6
:10215400D3603268D36823F02003D3603268D36835
:1021640023F48073D3603268536923F0010353610D
:10217400012386F83930002386F838300320BDE87F
:10218400F08133681B682340A342D4D10020BDE80A
:10219400F081B5F1FF3F22D025B1FEF769F9C01BEC
:1021A400A8421CD93268D36823F08003D360326814
:1021B400D36823F02003D3603268D36823F4807398
:1021C400D3603268536923F001035361012386F815
:1021D4003930002386F838300320BDE8F0813368B5
:1021E4001B682340A342D4D00020BDE8F08100BF87
:1021F400704700BF002800F0818010B50446836951
:102204001BB303683E4A93420FD0A2F54C4293425B
:102214000BD002F58062934207D002F54C42934200
:1022240003D03848FC2100F01FF9A36953B3B3F578
:10223400807F27D0B3F5007F24D0B3F5407F21D031
:102244003048FD2100F010F91CE003682C4A934249
:1022540018D0A2F54C42934214D002F58062934206
:1022640010D002F5806293420CD002F58062934252
:1022740008D002F54442934204D0224840F20111AE
:1022840000F0F2F8A3683BB1B3F5805F04D01D48B9
:1022940040F2031100F0E8F8E3693BB1B3F5004FF5
:1022A40004D018484FF4827100F0DEF894F8393005
:1022B40013F0FF0F02D12046FFF79AFF022384F8A0
:1022C40039302268D36823F40053D3602046FFF7E3
:1022D400EFFD2268136923F4904313612268536964
:1022E40023F02A0353612268D36843F40053D36074
:1022F4000020E063012384F8393010BD01207047C9
:10230400001001402038000870B504460D461E46F2
:1023140090F83930DBB2012B01D0222B5AD1002D99
:102324005AD0002A5AD094F83830012B58D00123BF
:1023340084F838300023E36394F83930DBB2222B7D
:1023440003D1322384F8393002E0122384F839307F
:10235400A284E28423E0013BE384A368B3F5805FB5
:1023640012D12046802100223346FFF7D7FE0028F1
:1023740038D122682B88C3F30803536023690BB94F
:1023840002350CE001350AE0204680210022334664
:10239400FFF7C4FE40BB23682A785A600135E38CFA
:1023A400002BD8D12046402100223346FFF7B6FE49
:1023B4000346D8B994F83920D2B2322A03D1222262
:1023C40084F8392002E0012284F83920002284F8BC
:1023D40038200CE002230AE0012308E0012306E090
:1023E400022304E0032302E0032300E0032318464E
:1023F40070BD00BF90F83900704700BFFEE700BF12
:1024040008B5034800F056F80120FFF7F7FF00BFB6
:102414005038000808B50D4B1B6813B90C4A0B4B18
:102424001A600A4B1A68C31C23F0030313440949B6
:102434008B4206D900F0D0FC0C2303604FF0FF3030
:1024440008BD02490B60104608BD00BF8000002093
:102454001C06002000FC012001230360014B0B60DB
:10246400704700BF0400002008B503460A4603482D
:10247400194600F005F8FFF7C3FF00BFA4380008B1
:102484000FB400B583B004AB53F8042B0193084890
:10249400802100F037FD011E03DD054800F04CF8F3
:1024A4000146084603B05DF804EB04B0704700BF72
:1024B4008800002010B5044600F0F2FC01462046D6
:1024C40000F03AF80248012100F036F810BD00BFD0
:1024D400943900082DE9F04385B004460F46435C67
:1024E40013BB042528462146ABBE04461FE03546EF
:1024F400102E28BF1025002306E014F8011B04AA9F
:102504001A4402F8101C0133AB42F6D304AA134454
:10251400002203F8102CE9464FF0040840464946CF
:10252400ABBE8046761B00E00E46002EDFD1384657
:1025340005B0BDE8F08300BF08B5FFF7CBFF08BDC9
:1025440008B500F089F808BDF8B504460D461746ED
:102554001E462648FFF794FF25482168FFF790FFA1
:1025640024486168FFF78CFF2348A168FFF788FFC0
:102574002248E168FFF784FF21482169FFF780FFC3
:1025840020486169FFF77CFF1F48A169FFF778FFC6
:102594001E48E169FFF774FF1D48FFF771FF1D48EE
:1025A4002946FFF76DFF1C4CE16A1C48FFF768FFE2
:1025B400216B1B48FFF764FFE16B1A48FFF760FFCC
:1025C40015F0800F03D018483946FFF759FF15F46A
:1025D400004F03D015483146FFF752FF1448FFF768
:1025E4004FFF14480699FFF74BFFF8BDFC3800086D
:1025F4000C3900081C3900082C3900083C39000843
:102604004C3900085C3900086C3900087C39000832
:102614008C3900089839000800ED00E0A83900085A
:10262400B8390008C8390008D8390008E839000862
:10263400F8390008003A000883691A888A4207D1E9
:102644000268033A012A05D80233836101207047E6
:1026540000207047002070470C4B1A6842F00102BA
:102664001A60002199601A6822F0847222F4803280
:102674001A60074A5A601A6822F480221A60D960E4
:102684004FF00062034B9A60704700BF003802406D
:102694001030002400ED00E010F0800F20D13F291D
:1026A4001ED8CB0800EBC3100E4B1B5C3AB101F0F3
:1026B400070101228A401A430A490A5407E001F03B
:1026C400070101228A4023EA020206490A54054A04
:1026D400125C9A4204D0C0F3CF100122024B1A5468
:1026E400704700BF1C0100201C05002010B5002409
:1026F40016E000220C4B1A5514F07F0F0BD1E009A1
:1027040060F04F00C0B200F0A1F9102000F09EF973
:10271400002000F09BF9002000F0A8F90134A4B2D5
:10272400B4F5806FE5D310BD1C01002082B02DE903
:10273400F04182B080460F460993C3F30723D21AAF
:102744000B9B53F822000190002625E00C9ABDF85B
:10275400063003EB4603D55C0133D35C43EA05251D
:10276400002413E0C4F10F0345FA03F313F0010F3F
:102774000AD09DF8241008EB0600091B3944C0B2A6
:10278400C9B20122FFF788FF0134E4B29DF8053095
:10279400A342E7D80136F6B29DF80430B342D5D847
:1027A40002B0BDE8F04102B0704700BF82B02DE92D
:1027B400F04186B080460F4616460D9300251CE076
:1027C4009DF8353054B2E31A0F9A52F8230005905D
:1027D4000EAB93E807008DE807000D9B4046394691
:1027E4002246FFF7A3FF9DF814009DF838301844E3
:1027F40040445FFA80F80135EDB2725D002ADFD102
:1028040006B0BDE8F04102B0704700BF08B500F063
:102814007BF8402000F01AF9A12000F017F9C0203D
:1028240000F014F9A62000F011F9A22000F00EF92E
:102834002F2000F00BF9F82000F008F9002000F038
:1028440005F9272000F002F9812000F0FFF810209C
:1028540000F0FCF8AC2000F0F9F8002000F0F6F8E5
:10286400AF2000F0F3F808BD10B50022184B1A7021
:1028740028E0184B1B5C012B20D10024154B1C5461
:1028840040F0B00000F0E2F8102000F0DFF820463D
:1028940000F0DCF8104B1C700BE00D4A127803EBCF
:1028A400C2130E4AD05C00F0E1F80B4A13780133EE
:1028B4001370094B1B7813F0800FEED0044A137881
:1028C40001331370024B18780728D2D910BD00BF0A
:1028D400190100201C050020180100201C01002003
:1028E40008B5024602481021FDF7E8FF08BD00BF05
:1028F4000010024008B5024602481021FDF7DEFF31
:1029040008BD00BF000402402DE9F04395B000F07B
:10291400BDF8424E336B43F002033363336B43F031
:10292400100333630124109410270F970025119589
:102934004FF00308CDF84880DFF80C9148460FA902
:10294400FDF72EFE3648214600F0A2F948463946E6
:102954002246FDF7B3FF0B940A970C95CDF834800B
:10296400304F38460AA9FDF71BFE2F48214600F0D8
:102974008FF906944FF04009CDF814900795CDF8DF
:102984002080384605A9FDF70BFE2848214600F0B3
:102994007FF9384649462246FDF790FF4FF400631D
:1029A4000093029502230193CDF80C8004943846D9
:1029B4006946FDF7F5FD1E48214600F069F9736C80
:1029C400234373641B4EA7F5883737601A4B1B6883
:1029D4001A4AA2FB0323DB0C013B7360B5604FF47E
:1029E4007A73F36035613046FEF774FF144821466C
:1029F40000F04EF9134960230B604D608D60042490
:102A04000C6130462246FFF739F830462146FFF77D
:102A1400DFF9BD6315B0BDE8F08300BF00380240A4
:102A2400804400080010024094440008A8440008B0
:102A3400C0440008400500200C00002083DE1B4336
:102A4400D8440008240500200004024010B50446C0
:102A54000020FFF745FF0020FFF74CFF204600F061
:102A640057F80120FFF746FF10BD00BF10B504461C
:102A74000120FFF735FF0020FFF73CFF204600F060
:102A840047F80120FFF736FF10BD00BF30B587B00F
:102A94001A4B5A6C42F480525A641A6B42F0020286
:102AA4001A63022502952823019300240394032327
:102AB400049305230593124801A9FDF771FD1148FC
:102AC400114B03604FF4827343604FF400438360FF
:102AD400C4600561012343614FF400738361C461E1
:102AE4000462446284620723C362FEF7FDFB01466D
:102AF400064800F0CDF807B030BD00BF00380240F2
:102B0400000402407C05002000300140E844000835
:102B140000B583B002A901F8010D0448012241F275
:102B24008833FEF795FC03B05DF804FB7C050020B8
:102B340030B587B01F4B1A6B42F001021A631A6C4E
:102B440042F400321A640C250195022302930124F5
:102B540003940323049307230593174801A9FDF75E
:102B64001FFD262000212246FDF7AEFC2620FDF79E
:102B7400EDFC124C124B2360124B63600023A360E4
:102B8400E36023616561A361E3612046FFF732FBE3
:102B94002268D36843F02003D3602046FFF72AFC61
:102BA4000146094800F074F80848616800F070F8BC
:102BB40007B030BD0038024000000240D4050020B8
:102BC4000044004020A107000845000818450008FB
:102BD40000B583B002A901F8010D0448012241F2B5
:102BE4008833FFF791FB03B05DF804FBD4050020A4
:102BF40010B592B0174A136C43F080531364A2F5D6
:102C0400E432136843F440431360012301930293B5
:102C1400022407944FF480030893082309934FF484
:102C2400A8730A930B9407230C9301A8FDF760FE85
:102C34000F230D930E9400230F934FF4A05310937E
:102C44004FF4805311930DA80521FEF7ABF812B091
:102C540010BD00BF0038024008B5FFF7FDFCFDF7CA
:102C6400EDFBFDF70BFCFFF7C3FF08BD064A136835
:102C740001331360054B1B889BB223B1034A1388AD
:102C8400013B9BB21380704714060020080100200A
:102C94002DE9F04184B00746884600F001F986B278
:102CA4002D20FFF795FF3E20FFF792FF2020FFF72E
:102CB4008FFF002206E0551CADB2B856FFF788FF1F
:102CC40026462A46731E9CB2002EF4D1684610494B
:102CD400424600F0C1F8684600F0E2F886B22020CF
:102CE400FFF776FF002309E05D1CADB204AA13448C
:102CF40013F9100CFFF76CFF26462B46721E94B294
:102D0400002EF1D10A20FFF763FF04B0BDE8F08183
:102D14002C45000830B585B0FDF790FBFFF708FFA0
:102D2400254C26482168FFF7B3FF0520FDF7AEFBCD
:102D34004FF0FF3000210A46FDF7C6FB2368204A06
:102D4400A2FB03239B09013BB3F1807F09D21D4AF7
:102D54005360F0211C4B83F8231000239360072356
:102D640013601A484FF47A71FFF792FFFFF74EFD94
:102D7400FFF7BCFC164D2C1D94E807008DE80700F6
:102D84002B68002001464122FFF7D0FC94E807009D
:102D94008DE807002B68142001460E4AFFF706FD54
:102DA40000F020F800F01EF800F01CF800F01AF80B
:102DB400FFF75AFDF4E700BF0C000020304500087F
:102DC400D34D621010E000E000ED00E0444500083F
:102DD400443A00085C450008014B1868704700BF7E
:102DE40070000020194B10B51C68A36BD3B91820D0
:102DF40000F098F843F20E33A06303804AF6CD3313
:102E0400438041F2342383804EF26D63C3804DF6D8
:102E1400EC630381052343810B2383810122002377
:102E2400C0E90423A16B0A4C0B694869094A5C4355
:102E340002FB0040A3FB02230132034443F10003DD
:102E4400C1E9042323F0004010BD00BF700000203E
:102E54002DF451582D7F954C0EB400B59CB04FF411
:102E64000271ADF814106FF00041049107914FF610
:102E7400FF711DABADF81610084953F8042B0290EE
:102E840006900868019302A900F048F9029B002209
:102E94001A701CB05DF804EB03B07047700000209A
:102EA400034613F8012B002AFBD1181A0138704786
:102EB40030B5141E9BB0054604DA8B2303604FF033
:102EC400FF301CE04FF40272ADF80C2014BF04F183
:102ED400FF322246029205924FF6FF72009104914E
:102EE400ADF80E2069461A461E9B00F017F9431CE4
:102EF400BCBF8B232B6014B1009B00221A701BB043
:102F040030BD000073B50093054B06460D461446CC
:102F1400186831462A462346FFF7CAFF02B070BD3F
:102F240070000020024B0146186800F047B800BF4B
:102F34007000002030B500293DD051F8042C0B1F3F
:102F44001D49002AB8BF9B180A680C4612B95A607A
:102F54000B6030BD93420DD219685818904201BFDE
:102F64005A5852181A6042685A60236030BD994218
:102F740003D80A4651680029F9D1146815199D42ED
:102F84000AD11B682344D0188842136013D10868FF
:102F9400034413604B680DE002D90C23036030BD79
:102FA4001C681819884204BF08684968596004BF3E
:102FB40000191860536030BD1001002070B5CC1C9E
:102FC40024F0030408340C2C38BF0C24002C0646CF
:102FD40003DA0C233360002070BD8C42F9D3204AFD
:102FE400136810461946A1B10A68121B0ED40B2AA5
:102FF40003D90A608B188C501FE08B420DBF5A68AE
:103004004A685A60026018BF0B4616E00B464968CE
:10301400E9E7144D2B681BB9304600F007FB286024
:103024003046214600F002FB421C0346D1D0C51CA9
:1030340025F0030585420AD11C6003F10B001A1D1B
:1030440020F00700821A0AD05142995070BD3046D0
:10305400E91A00F0EBFA0130BBD02B46ECE770BD67
:10306400100100200C0100202DE9F0478E68B342C6
:1030740082460C469046994640D38A8912F4906F52
:103084003AD0256809696F1A6569022305EB45057D
:1030940095FBF3F57B1C4B449D4238BF1D465305FD
:1030A4000FD52946FFF78AFF064698B121693A46AB
:1030B40000F0DBFAA38923F4906343F08003A38137
:1030C40013E02A4600F0F7FA064670B95046216923
:1030D400FFF730FF0C23CAF80030A38943F0400304
:1030E400A3814FF0FF30BDE8F087266165613E445F
:1030F400ED1B2660A5604E46B14500D24E463246D1
:103104002068414600F0BCFAA3689B1BA3602368B7
:103114001E4426600020BDE8F08700002DE9F0433E
:103124009DB0064603938B891C060D4690460CD52C
:103134000B6953B94021FFF741FF2860286110B99A
:103144000C233360CCE040236B61002309932023DC
:103154008DF8293030238DF82A3043461C4613F865
:10316400012B1AB9B4EB08090FD002E0252AF5D1D6
:10317400F8E73046294642464B46FFF775FF0130D3
:1031840000F0A980099B4B4409932378002B00F09D
:10319400A28000234FF0FF32049307930592069315
:1031A4008DF853301A9304F101084446DFF848912E
:1031B40021784846052200F049FA08F10108049BE9
:1031C40030B1C9EB00000122824013430493ECE7C1
:1031D400D80644BF20228DF85320190744BF2B2260
:1031E4008DF8532022782A2A02D0079923460EE02C
:1031F400039A111D12680391002ABBBF524243F087
:10320400020307920792B8BF049301340AE01C46F4
:1032140001332278303A092A03D80A2000FB01211D
:10322400F5E7079123782E2B1AD163782A2B0AD13C
:10323400039B1A1D1B680392002BB8BF4FF0FF338A
:10324400023405930CE0611C00220C460131237802
:10325400303B092B03D80A2000FB0232F5E7059224
:10326400DFF8988021784046032200F0EFF938B166
:10327400049AC8EB000040238340134304930134B1
:1032840021781A488DF82810062204F1010800F06C
:10329400DDF988B1164B33B9039B073323F00703D9
:1032A4000833039313E003AB0093304604A92A4682
:1032B400104BAFF3008007E003AB0093304604A942
:1032C4002A460C4B00F092F8421C074603D0099B97
:1032D4003B44099341E7AB895B0601D4099801E0BB
:1032E4004FF0FF301DB0BDE8F08300BF7445000807
:1032F400000000006D3000086A45000870450008B1
:103304002DE9F84391461F468A680B69DDF8208051
:103314009342B8BF1346C9F8003091F843200646DB
:103324000C4612B10133C9F800302368990642BF34
:10333400D9F800300233C9F80030256815F00605C5
:103344001CD094F843302268003318BF012392063E
:103354001FD5E1185A1C302081F84300224494F808
:10336400451082F84310023313E03046394604F125
:1033740019020123C047013007D00135E368D9F8A9
:1033840000209B1A9D42F0DBDBE74FF0FF30BDE8E5
:10339400F8833046394604F14302C0470130F4D083
:1033A4002268D9F80050E36802F00602042A08BF34
:1033B4005D1B2269A3680CBF25EAE57500259342CD
:1033C400C4BF9B1AED184FF00009A9450ADA30462C
:1033D400394604F11A020123C0470130D5D009F15E
:1033E4000109F2E70020BDE8F88300002DE9FF4160
:1033F4000C461746227E6E2A984606460A9B01F121
:10340400430100F0AF8012D8632A23D00AD8002ADF
:1034140000F0BC80582A40F0CB8084F84520DFF8C7
:1034240004E257E0642A1ED0692A1CD0C0E0732A43
:1034340000F0B08009D86F2A2ED0702A40F0B880EE
:10344400226842F0200222603FE0752A24D0782AC4
:103454003BD0ADE01A68111D1960136884F842303E
:1034640004F14205A8E020681A6810F0800F02D029
:10347400101D186008E010F0400F02F104001860FD
:1034840002D0B2F9003000E01368002B3EDA2D229E
:103494005B4284F8432039E020681A6810F0800FFA
:1034A40002D0101D186007E010F0400F02F1040074
:1034B400186001D0138800E01368227EDFF864E10D
:1034C4006F2A0CBF08220A221CE07822DFF858E198
:1034D40084F845202268186812F0800F00F1040572
:1034E4001D6003D1550601D5038800E00368D007A9
:1034F40044BF42F0200222601BB9226822F020025D
:1035040022601022002084F8430002E0DFF814E176
:103514000A226568A560002DA2BF206820F004007F
:10352400206003B965B10D46B3FBF2F002FB103322
:103534001EF8033005F8013D03460028F4D100E0ED
:103544000D46082A0BD12368DA0708D52369626877
:103554009A42DEBF302305F8013C05F1FF35491BD3
:1035640021612EE025681A68606915F0800F03D088
:10357400151D1D60136808E015F0400F02F10405E5
:103584001D60136801D0188000E0186000232361D7
:103594000D4616E01A68111D196015686268284600
:1035A400002100F053F808B1401B6060636804E038
:1035B40004F1420584F8422001232361002384F8A6
:1035C4004330CDF800803046214603AA3B46FFF73E
:1035D40097FE013002D14FF0FF301FE030463946EC
:1035E4002A462369C0470130F5D023689B0705D4D8
:1035F400E068039B9842B8BF18460FE00025E368D3
:10360400039A9B1A9D42F3DA3046394604F11902B3
:103614000123C0470130DED00135F0E704B0BDE836
:10362400F08100BF7B4500088C45000838B5064C86
:103634000023054608462360FEF7ECFE431C02D136
:10364400236803B12B6038BD1401002010B5C9B242
:1036540002449042034606D01C788C4200F10100DB
:10366400F7D1184610BD002010BD10B5431E0A4402
:10367400914204D011F8014B03F8014FF8E710BD53
:10368400814210B501EB020301D3421E0BE09842C4
:10369400FBD28118D21AD34204D013F8014D01F899
:1036A400014DF8E710BD994204D011F8014B02F81E
:1036B400014FF8E710BDF8B5074615460E4621B987
:1036C4001146BDE8F840FFF779BC1AB9FFF732FCA0
:1036D4002846F8BD00F015F8A8420ED2384629460F
:1036E400FFF76CFC044650B131462A46FFF7BDFF94
:1036F40038463146FFF71EFC01E03046F8BD20464F
:10370400F8BD51F8040C0028BEBF091851F8043C58
:10371400C0180438704700002E2E2F737973746517
:103724006D2F7372632F73746D333266342D686139
:103734006C2F73746D3332663478785F68616C5FB4
:10374400636F727465782E63000000002E2E2F7351
:10375400797374656D2F7372632F73746D3332666E
:10376400342D68616C2F73746D3332663478785FEE
:1037740068616C5F6770696F2E6300000000000071
:103784000102030401020304060708092E2E2F7305
:10379400797374656D2F7372632F73746D3332662E
:1037A400342D68616C2F73746D3332663478785FAE
:1037B40068616C5F7263632E630000002E2E2F73AA
:1037C400797374656D2F7372632F73746D333266FE
:1037D400342D68616C2F73746D3332663478785F7E
:1037E40068616C5F7370692E630000002E2E2F7366
:1037F400797374656D2F7372632F73746D333266CE
:10380400342D68616C2F73746D3332663478785F4D
:1038140068616C5F74696D2E630000002E2E2F7337
:10382400797374656D2F7372632F73746D3332669D
:10383400342D68616C2F73746D3332663478785F1D
:1038440068616C5F756172742E63000061626F72EF
:103854007428292C2065786974696E672E2E2E00D1
:103864002C2066756E6374696F6E3A200000000048
:10387400617373657274696F6E20222573222066EA
:1038840061696C65643A2066696C6520222573223F
:103894002C206C696E65202564257325730A00004D
:1038A4006173736572745F706172616D282920663B
:1038B40061696C65643A2066696C6520222573220F
:1038C4002C206C696E652025640A00006D61696EA8
:1038D40028617267633D25642C20617267763D5BC5
:1038E400000000002C2000002225732200000000AC
:1038F4005D293B0A00000000537461636B2066720B
:10390400616D653A0A000000205230203D202025D8
:103914003038580A00000000205231203D20202574
:103924003038580A00000000205232203D20202563
:103934003038580A00000000205233203D20202552
:103944003038580A0000000020523132203D202532
:103954003038580A00000000204C52203D20202519
:103964003038580A00000000205043203D20202514
:103974003038580A0000000020505352203D2025C2
:103984003038580A000000004653522F4641523A3C
:103994000A0000002043465352203D2020253038A1
:1039A400580A00002048465352203D202025303834
:1039B400580A00002044465352203D202025303828
:1039C400580A00002041465352203D20202530381B
:1039D400580A0000204D4D464152203D20253038E4
:1039E400580A00002042464152203D20202530380C
:1039F400580A00004D6973630A000000204C522FDE
:103A04004558435F52455455524E3D202530385851
:103A14000A0000005B486172644661756C745D0A5B
:103A2400000000005B4275734661756C745D0A00AA
:103A34005B55736167654661756C745D0A000000CF
:103A440010215F0102000000543A0008543F0008AE
:103A540002100000011004000410060008100E00FB
:103A640006101E000A102A0009103E000110500022
:103A7400031052000310580005105E000710680080
:103A84000210760003107A000110800006108200F4
:103A940006108E0005109A000610A4000610B0004F
:103AA4000610BC000610C8000610D4000610E00082
:103AB4000610EC000610F8000110040102100601C3
:103AC40006100A0107101601061024010510300122
:103AD4000C103A0109105201071064010810720118
:103AE400081082010610920105109E010810A80119
:103AF4000810B8010110C8010410CA010610D2014F
:103B04000610DE010B10EA01081000020910100271
:103B1400061022020A102E0207104202051050025B
:103B240007105A0208106802091078020B108A0262
:103B34000810A0020710B0020710BE020310CC0246
:103B44000610D2020310DE020710E4020810F2028B
:103B5400000000000610020306100E0305101A03ED
:103B6400061024030610300304103C03071044031A
:103B74000610520301105E03031060030510660370
:103B840001107003091072030610840306109003D9
:103B940006109C030610A8030410B4030510BC030C
:103BA4000410C6030610CE030510DA030910E4035B
:103BB4000510F6030510000404100A04041012048E
:103BC40001101A0404101C0407102404000000004F
:103BD40000000000000000000000000000000000E1
:103BE40000000000000000000000000000000000D1
:103BF40000000000000000000000000000000000C1
:103C040000000000000000000000000000000000B0
:103C140000000000000000000000000000000000A0
:103C24000000000000000000000000000000000090
:103C34000000000000000000000000000000000080
:103C44000000000000000000000000000000000070
:103C54000000000000000000000000000000000060
:103C64000000000000000000000000000000000050
:103C7400000000000B1032040000000000000000EF
:103C840000000000000000000610480400000000CE
:103C94000410540407105C0400000000000000003D
:103CA4000000000000000000000000000000000010
:103CB4000000000000000000000000000000000000
:103CC40009106A040A107C040000000000000000CF
:103CD40000000000000000000000000000000000E0
:103CE4000000000000000000000000000810900424
:103CF40000000000000000000000000000000000C0
:103D040000000000000000000000000000000000AF
:103D1400000000000000000000000000000000009F
:103D240000000000000000000910A00400000000D2
:103D3400000000000000000000000000000000007F
:103D44000810B204000000000000000000000000A1
:103D5400000000000000000000000000000000005F
:103D64000000000000000000000000000510C20474
:103D7400000000000000000000000000000000003F
:103D8400000000000000000000000000000000002F
:103D9400000000000000000000000000000000001F
:103DA40000000000000000000610CC040710D80436
:103DB40000000000000000000000000000000000FF
:103DC4000610E604000000000000000000000000EF
:103DD40000000000000000000000000000000000DF
:103DE40000000000000000000000000000000000CF
:103DF40000000000000000000000000000000000BF
:103E040000000000000000000000000000000000AE
:103E1400000000000000000000000000000000009E
:103E2400000000000000000000000000000000008E
:103E3400000000000000000000000000000000007E
:103E440000000000000000000810F2040710020542
:103E5400000000000000000000000000000000005E
:103E6400000000000000000000000000000000004E
:103E7400000000000000000000000000000000003E
:103E8400000000000000000000000000000000002E
:103E940002101005011014050000000000000000CD
:103EA400000000000000000000000000000000000E
:103EB40000000000000000000000000000000000FE
:103EC40000000000000000000000000000000000EE
:103ED40000000000000000000000000000000000DE
:103EE40000000000000000000000000000000000CE
:103EF40000000000000000000000000000000000BE
:103F040000000000000000000000000000000000AD
:103F1400000000000000000000000000000000009D
:103F2400000000000000000000000000000000008D
:103F3400000000000000000000000000000000007D
:103F44000000000000000000061016050510220500
:103F5400000000001BFC003C00000000003C02408C
:103F64001F4002F8024002401F4002F8024008705D
:103F740010887088110E11080E10007000881888BF
:103F84000470030000C00E20111811000E000F0071
:103F940010B8104410C411240A1804000B80100037
:103FA400003C1FE060188004800460181FE0004893
:103FB400003000FC003000480100010001000FE067
:103FC400010001000100400038000200020002006C
:103FD400180060001800070000C00030000C0FF04B
:103FE40010081008100810080FF0102010101FF807
:103FF400100010001010180814081208118810700E
:10400400081010881088108810880F70060005802A
:10401400046004181FF80400080010F810881088C1
:1040240010880F080FE011101088108810880F08EE
:10403400000810080C080388006800180F70108826
:104044001088108810880F7010F0110811081108DA
:10405400088807F018C0400038C0010002800280C0
:104064000440044008200240024002400240024052
:104074000240024008200440044002800280010003
:10408400000800041B84008400780F803060201036
:104094004710488848484448468849C808080410D6
:1040A40003E0180006000380026002180260038027
:1040B400060018001FF810881088108810881170E6
:1040C4000E0007E008101008100810081008100867
:1040D40008101FF81008100810081008100808101D
:1040E40007E01FF8108810881088108810081FF83F
:1040F400008800880088008807E00810100810086D
:104104001108110811080F101FF8008000800080AA
:104114000080008000801FF81FF8100010001000BD
:104124000FF81FF8008001400620081010081FF83F
:10413400100010001000100010001FF8001800609C
:1041440001800600180006000180006000181FF8B6
:104154001FF80008003000C003000C0010001FF816
:1041640007E00810100810081008100810080810BC
:1041740007E01FF8010801080108010800F007E042
:10418400081010081008100810081008181027E06C
:1041940020001FF801080108010803080CF01000B2
:1041A40008701088108811080E1000080008000814
:1041B4001FF800080008000807F8080010001000A5
:1041C40010001000080007F80018006001800600C5
:1041D40018000600018000600018003803C01C00AD
:1041E400060001C0003801C006001C0003C00038EE
:1041F400100808100660018001800660081010088D
:104204000008003000C01F0000C00030000818087B
:10421400140812081188104810281018FFFC800494
:104224008004000C003000C0070018006000800407
:104234008004FFFC010000C000300008003000C012
:1042440001008000800080008000800080008000E9
:1042540080000C801240124012400A401F801FFC54
:1042640008801040104010400F800F801040104014
:10427400104008800F8010401040104008801FFC40
:104284000F801240124012401240138000401FF869
:10429400004400446B80944094409440944093C004
:1042A40060401FFC00800040004000401F801FD081
:1042B400800080007FD01FFC0200050008801040B1
:1042C4001FFC1FC00080004000401F800080004091
:1042D40000401F801FC000800040004000401F803D
:1042E4000F8010401040104010400F80FFC0088025
:1042F4001040104010400F800F80104010401040BC
:104304000880FFC01FC000800040004011801240A0
:10431400124012400C4000400FF0104010400FC0FB
:1043240010001000100008001FC000C00700180093
:10433400070000C000C007001800070000C0070005
:104344001800070000C010400D8002000D801040CE
:1043540000C0C7003800070000C0184016401140D4
:1043640010C001007EF880048004FFFC80048004F7
:104374007EF80100006000100010002000400040A2
:10438400003003E00C18080813E414141414141473
:10439400122408080C1803E00078008400B400B468
:1043A4000084007800180024002400181080108075
:1043B400108017F0108010801080001010080CF886
:1043C400020001800C400B301F0808000010100888
:1043D4000CF8020001800040113019081500120089
:1043E40007E0081010089008B008500810080810DA
:1043F40007E008101008100B10081008100B081024
:1044040007E007F80800100310001000100308006C
:1044140007F80F809040B040504008800F80104053
:104424001058104010580F800100010001000D6069
:104434000100010001000FC010181000100008183E
:104444001FC007C00C301811100A110A11091108F5
:104454000F106F809440944C9450945093CC6040CF
:104464001FFB00031FC0087090C89088F1881910C2
:104474000E00118092409240F2400C404750494F48
:1044840020496E69742050423420435300000000D8
:104494004750494F20496E697420504534204130BB
:1044A400000000004750494F20496E6974746564E8
:1044B4002050453620525354000000004750494FC5
:1044C40020496E6974746564205045313120505719
:1044D4004D00000054494D3120496E69747465647F
:1044E40000000000535049312048414C5F5350496B
:1044F4005F496E6974202830206973206F6B293AF4
:104504000000000055415254322053746174757395
:104514003A000000554152543220426175642052E1
:104524006174653A000000002564000053797374D7
:10453400656D436F7265436C6F636B3A00000000F6
:104544005379735469636B204672657175656E6344
:104554007928487A293A000048656C6C6F576F7265
:104564006C6421004300232D302B2000686C4C0028
:10457400656667454647003031323334353637385F
:1045840039414243444546003031323334353637BD
:0945940038396162636465660058
:1045A0007856341284000020000000000024F4003B
:1045B00000000000000000000000000000000000FB
:1045C00000000000000000000000000000000000EB
:1045D0006845000800000000000000000000000026
:1045E00000000000000000000000000000000000CB
:1045F00000000000000000000000000000000000BB
:1046000000000000000000000000000000000000AA
:084610001000002032547698DE
:040000050800018965
:00000001FF
